:020000040000FA
:100000000C9450010C9478010C9478010C947801B4
:100010000C9478010C9478010C9478010C9478017C
:100020000C9478010C9478010C9478010C9478016C
:100030000C9478010C9478010C9478010C9478015C
:100040000C94050D0C9478010C94D30C0C94AD0C0D
:100050000C9478010C9478010C9478010C9478013C
:100060000C944F0D0C947801084AD73B3BCE016E9F
:1000700084BCBFFDC12F3D6C74319ABD56833DDAFF
:100080003D00C77F11BED9E4BB4C3E916BAAAABE0E
:10009000000000803F08000000BE922449123EABE1
:1000A000AAAA2ABECDCCCC4C3E00000080BEABAA92
:1000B000AAAA3E00000000BF000000803F00000030
:1000C0000000084178D3BB4387D1133D190E3CC3D0
:1000D000BD4282AD2B3E68EC8276BED98FE1A93E4F
:1000E0004C80EFFFBE01C4FF7F3F0000000000070F
:1000F000634236B79BD8A71A39685618AEBAAB55C3
:100100008C1D3CB7CC5763BD6DEDFD753EF6177287
:1001100031BF000000803F004E414E494E495459C6
:10012000494E46CDCCCC3D0AD7233C17B7D13877C2
:10013000CC2B329595E6241FB14F0A0000204100D8
:1001400000C84200401C4620BCBE4CCA1B0E5AAE22
:10015000C59D7400407A10F35A00A0724E18090031
:1001600010A5D4E80000E87648170000E40B54021C
:100170000000CA9A3B000000E1F505000080969857
:1001800000000040420F000000A0860100000010A7
:100190002700000000E803000000006400000000E9
:1001A000000A00000000000100000000002C76D8CA
:1001B00088DC674F0823DFC1DFAE59E1B1B796E5B0
:1001C000E3E453C63AE651997696E8E6C28426EB14
:1001D000898C9B62ED407C6FFCEFBC9C9F40F2BA27
:1001E000A56FA5F490055A2AF75C936B6CF9676DBF
:1001F000C11BFCE0E40D47FEF520E6B500D0ED9014
:100200002E0300943577050080841E080000204EE0
:100210000A000000C80C333333330F986E12831179
:1002200041EF8D2114893BE65516CFFEE6DB18D150
:10023000844B381BF77C1D901DA4BBE42420328422
:10024000725E228100C9F124ECA1E53D2700000087
:1002500000240027002A0000000000250028002BB1
:10026000000404040404040404020202020202035F
:100270000303030303010204081020408001020469
:1002800008102001020408102000000008000201EC
:1002900000000304070000000000000000006E0ED4
:1002A00011241FBECFEFD8E0DEBFCDBF24E0A2E314
:1002B000B2E001C01D92AE33B207E1F712E0A0E058
:1002C000B1E0E8E9F6E402C005900D92A233B1076F
:1002D000D9F711E0C0E5D1E004C02197FE010E94EA
:1002E000B11ECF34D107C9F70E94CC0E0C944A231B
:1002F0000C94000008950895AF92BF92CF92DF92C0
:10030000EF92FF920F931F93CF93DF936C017B01CA
:100310008B01040F151FEB015E01AE18BF08C0175B
:10032000D10759F06991D601ED91FC910190F081CE
:10033000E02DC6010995892B79F7C501DF91CF9191
:100340001F910F91FF90EF90DF90CF90BF90AF90F3
:100350000895FC01538D448D252F30E0842F90E0CB
:10036000821B930B541710F0CF96089501970895B0
:10037000FC01918D828D981761F0A28DAE0FBF2F79
:10038000B11D5D968C91928D9F5F9F73928F90E0CF
:1003900008958FEF9FEF0895FC01918D828D98173E
:1003A00031F0828DE80FF11D858D90E008958FEF7B
:1003B0009FEF0895FC01918D228D892F90E0805C44
:1003C0009F4F821B91098F73992708958EE193E0C7
:1003D0000E94DA0121E0892B09F420E0822F0895A0
:1003E00080E090E0892B29F00E94E60181110C94B5
:1003F00000000895FC01A48DA80FB92FB11DA35AC8
:10040000BF4F2C91848D90E001968F739927848F34
:10041000A689B7892C93A089B1898C918370806457
:100420008C93938D848D981306C00288F389E02DF8
:1004300080818F7D80830895EF92FF920F931F93A9
:10044000CF93DF93EC0181E0888F9B8D8C8D981387
:100450001AC0E889F989808185FF15C09FB7F89493
:10046000EE89FF896083E889F989808183708064DF
:1004700080839FBF81E090E0DF91CF911F910F912A
:10048000FF90EF900895F62E0B8D10E00F5F1F4F39
:100490000F731127E02E8C8D8E110CC00FB607FC48
:1004A000FACFE889F989808185FFF5CFCE010E94D6
:1004B000FA01F1CFEB8DEC0FFD2FF11DE35AFF4F49
:1004C000F0829FB7F8940B8FEA89FB898081806264
:1004D000CFCFCF93DF93EC01888D8823B9F0AA8921
:1004E000BB89E889F9898C9185FD03C0808186FDEF
:1004F0000DC00FB607FCF7CF8C9185FFF2CF80813E
:1005000085FFEDCFCE010E94FA01E9CFDF91CF91B7
:10051000089590E0FC01E757FD4F2491FC01EB5852
:10052000FD4F3491FC01EF59FD4FE491EE23C9F0EA
:10053000222339F0233001F1A8F4213019F12230BF
:1005400029F1F0E0EE0FFF1FE95AFD4FA591B4919C
:100550008FB7F894EC91611126C030953E233C93FF
:100560008FBF08952730A9F02830C9F0243049F70B
:10057000809180008F7D03C0809180008F77809371
:100580008000DFCF84B58F7784BDDBCF84B58F7DCE
:10059000FBCF8091B0008F778093B000D2CF809155
:1005A000B0008F7DF9CF3E2BDACFCF93DF9390E071
:1005B000FC01EB58FD4F24918F599D4FFC01849114
:1005C0008823D1F090E0880F991FFC01E35BFD4F79
:1005D000A591B491FC01E95AFD4FC591D4916230C7
:1005E00071F49FB7F8943C91822F809583238C936C
:1005F000E8812E2B28839FBFDF91CF9108958FB77D
:10060000F894EC912E2B2C938FBFF6CF3FB7F89434
:1006100080917E0290917F02A0918002B091810230
:1006200026B5A89B05C02F3F19F00196A11DB11D4D
:100630003FBFBA2FA92F982F8827BC01CD01620F89
:10064000711D811D911D42E0660F771F881F991F44
:100650004A95D1F708958F929F92AF92BF92CF9211
:10066000DF92EF92FF926B017C010E9406034B0127
:100670005C01C114D104E104F104B9F00E94060345
:10068000681979098A099B09683E734081059105BB
:1006900080F321E0C21AD108E108F10888EE880E43
:1006A00083E0981EA11CB11CE4CFFF90EF90DF9077
:1006B000CF90BF90AF909F908F90089520915A0255
:1006C000260F3327331F21323105ECF42091180314
:1006D000FC0190E080E0243069F082E00895A09170
:1006E0005A022191AC01465C5D4FA40FB52FB11D9C
:1006F0002C930196861798F380915A02680F6093A5
:100700005A0280E0089581E008951092180381E074
:100710008093F7021092F20261E082E10E94890266
:1007200061E083E10E948902E9EBF0E080818E7F45
:10073000808380818D7F808388E48093B80085E406
:100740008093BC000895CF93DF9391E0909339029A
:100750008823B9F0C091B800D091BA008091BC0054
:100760008A7B8093BC0060E082E10E94890260E0A5
:1007700083E10E9489020E948503D093BA00C0934E
:10078000B800DF91CF910895CF92DF92EF92FF9260
:100790000F931F93CF93DF93D82FC62F613208F0AA
:1007A00098C00E9406036B017C018091180381119F
:1007B0006BC081E0809318038093F7029FEF9093C2
:1007C000F6021092F5029C0F9093F4028093F302CC
:1007D0008091F302DD0FD82BD093F3028091F202C7
:1007E000813009F078C01092F2020E9406036B017A
:1007F0007C018091F3028093BB0080911A03909159
:100800001B03A0911C03B0911D03892B8A2B8B2BFA
:10081000A1F00E94060300911A0310911B0320917E
:100820001C0330911D036C197D098E099F09061761
:1008300017072807390708F448C08091BC0083FDDA
:10084000D8CF85EC8093BC000E9406036B017C012D
:1008500080911803813009F440C08091F5028C1713
:1008600010F4C091F502E2EDF2E0A8EFB2E080E012
:100870008C1355C08C2FDF91CF911F910F91FF905A
:10088000EF90DF90CF90089580911A0390911B0311
:10089000A0911C03B0911D03892B8A2B8B2B09F48B
:1008A00084CF0E94060300911A0310911B0320912C
:1008B0001C0330911D036C197D098E099F090617D1
:1008C00017072807390708F070CF809119030E9495
:1008D000A303C0E0CFCF85EEB5CF80911A039091EE
:1008E0001B03A0911C03B0911D03892B8A2B8B2B1A
:1008F00009F4AECF0E94060300911A0310911B0366
:1009000020911C0330911D036C197D098E099F09EC
:10091000061717072807390708F09ACFD6CF919105
:100920009D938F5FA5CF8F929F92AF92BF92CF92F0
:10093000DF92EF92FF920F931F93CF93DF93D091AB
:10094000D102D13208F0D7C0182FC091D0020E9436
:1009500006036B017C018091180381116BC082E05A
:10096000809318031093F7028FEF8093F602109292
:10097000F502D093F402A0EBB2E0E2EDF2E080E009
:10098000D81391C01092F3028091F302CC0FC82BC0
:10099000C093F3028091F202813009F088C0109276
:1009A000F2020E9406036B017C018091F3028093A6
:1009B000BB0080911A0390911B03A0911C03B0917E
:1009C0001D03892B8A2B8B2BA1F00E94060300911B
:1009D0001A0310911B0320911C0330911D036C1905
:1009E0007D098E099F09061717072807390708F49C
:1009F00042C08091BC0083FDD8CF85EC8093BC00C1
:100A00000E9406036B017C0180911803823009F477
:100A100050C08091F6028F3F09F46FC08091F602BA
:100A2000803209F46CC08091F602803309F469C009
:100A300084E026C080911A0390911B03A0911C03AF
:100A4000B0911D03892B8A2B8B2B09F484CF0E9434
:100A5000060380901A0390901B03A0901C03B09093
:100A60001D036C197D098E099F0986169706A80635
:100A7000B90608F070CF809119030E94A30385E0A6
:100A80001092AF021092D1021092AE02DF91CF917C
:100A90001F910F91FF90EF90DF90CF90BF90AF909C
:100AA0009F908F9008959D9191938F5F69CF85EE70
:100AB000A5CF80911A0390911B03A0911C03B091C4
:100AC0001D03892B8A2B8B2B09F49ECF0E940603D2
:100AD00000911A0310911B0320911C0330911D03F8
:100AE0006C197D098E099F09061717072807390712
:100AF00008F08ACFC0CF81E0C3CF80E0C1CF82E0D1
:100B0000BFCF83E0BDCF1F93CF93DF93162FC8ECE9
:100B1000D3E0A881B98191E09093AE0298E69093DA
:100B2000D0021092AF021092D102ED91FC91119778
:100B30000190F081E02D682FCD0109958881998180
:100B4000DC01ED91FC910190F081E02D612F099580
:100B500081E0DF91CF911F910C9493040895E0916F
:100B6000AD028091AC02E81730F4F0E0E850FD4FA0
:100B7000808190E008958FEF9FEF08959091AD02EE
:100B80008091AC022FEF3FEF981748F4E92FF0E087
:100B9000E850FD4F208130E09F5F9093AD02C90186
:100BA00008958091AC029091AD02891B990B089534
:100BB000CF92DF92EF92FF920F931F93CF93DF9329
:100BC0007C01CB018A012091AE02222389F0EB0146
:100BD0006B01C40ED51ECC15DD0569F06991D701F6
:100BE000ED91FC910190F081E02DC7010995F3CFC3
:100BF000642F0E945E03C801DF91CF911F910F9176
:100C0000FF90EF90DF90CF900895CF93DF931F92E6
:100C1000CDB7DEB769832091AE022223F9F020918F
:100C2000D102203258F021E030E0FC0133832283EE
:100C300090E080E00F90DF91CF9108958091AF0216
:100C4000E82FF0E0E055FD4F998190838F5F80930E
:100C5000AF028093D10281E090E0ECCF61E0CE0161
:100C600001960E945E03F7CF90E080E00895CF9355
:100C7000CFB7F89480913802811127C0EBE6F2E0FB
:100C80008491EFE7F2E09491E82FF0E0EE0FFF1F80
:100C9000E35BFD4FA591B491EC91E92321F461E070
:100CA0008AE00E94890261E08AE00E94D5028CB548
:100CB00080618CBD8CB580648CBD61E08DE00E944C
:100CC000D50261E08BE00E94D502809138028F5FEF
:100CD00080933802CFBFCF910895089561E080914D
:100CE000BB030C9489028EBD00000DB407FEFDCF3E
:100CF0008EB508958CBD9DBD089580E591E00E945C
:100D00007A0660E08091BB030C948902CF93DF9355
:100D1000C82FD62F8CE591E00E947A0660E088E02B
:100D20000E948902C064CD27DC27CD270CB405FCC6
:100D300012C0DEBD00000DB407FEFDCF9EB5CEBDD6
:100D400000000DB407FEFDCF8EB561E088E0DF91B5
:100D5000CF910C948902CEBD00000DB407FEFDCFEB
:100D60008EB5DEBD00000DB407FEFDCFEDCFCF93F5
:100D7000C82F8CE591E00E947A0660E088E00E942E
:100D800089028C2F0E94730680E00E947306C82F90
:100D900061E088E00E9489028C2FCF9108950F9323
:100DA0001F93FC0100E012E12AE730E090E04017D9
:100DB00051076207730740F43695279517950795F5
:100DC0009F5F9630A1F797E0292F286B2695208307
:100DD0009095917091831F910F910895CF92DF921A
:100DE000EF92FF92CF93DF9300D0CDB7DEB7F82E0E
:100DF00040E05DE261E371E0CE0101960E94CF0622
:100E000089819A810E947A0660E089E00E948902C5
:100E10008F2D0E94730680E00E94730690E0B0E080
:100E2000A0E0CC24D82EE92EFA2E80E00E94730692
:100E3000C82AFE2CED2CDC2CCC2480E00E9473060A
:100E4000C82A61E089E00E948902C701B6010F90BB
:100E50000F90DF91CF91FF90EF90DF90CF900895AA
:100E60001F93CF93DF9300D0CDB7DEB7182F40E0AC
:100E70005DE261E371E0CE0101960E94CF068981B7
:100E80009A810E947A0660E089E00E9489028BE8DC
:100E900091E00197F1F7812F0E94730680E00E9494
:100EA0007306182F61E089E00E948902812F0F905C
:100EB0000F90DF91CF911F9108950F931F93CF93C0
:100EC000DF9300D0CDB7DEB7082F162F40E05DE2EC
:100ED00061E371E0CE0101960E94CF0689819A817B
:100EE0000E947A0660E089E00E9489028BE891E026
:100EF0000197F1F7802F80640E947306812F0E9472
:100F0000730661E089E00E9489020F900F90DF91E3
:100F1000CF911F910F910895FC0101900020E9F7F6
:100F20003197AF01481B590BBC018EE193E00C9443
:100F30007C018F929F92AF92BF920F931F93CF939A
:100F4000DF93CDB7DEB7A1970FB6F894DEBF0FBE23
:100F5000CDBF19A2423008F44AE08E010F5D1F4F49
:100F6000842E912CB12CA12CA50194010E94131E5A
:100F7000E62FB901CA01EA30F4F4E05DD801EE933E
:100F80008D01232B242B252B79F790E080E01097FF
:100F900019F0CD010E948C07A1960FB6F894DEBF20
:100FA0000FBECDBFDF91CF911F910F91BF90AF903A
:100FB0009F908F900895E95CE1CFCF93DF930E94DB
:100FC0008C07EC0189E391E00E948C078C0F9D1F38
:100FD000DF91CF9108954F925F926F927F928F929F
:100FE0009F92AF92BF92CF92DF92EF92FF926B01EE
:100FF0007C01AC019B010E943D1D8823C1F08CE364
:1010000091E00E948C077C0189E391E00E948C07AB
:101010008E0D9F1DFF90EF90DF90CF90BF90AF900F
:101020009F908F907F906F905F904F9008954601B2
:101030005701E894B7F82FEF3FEF4FE75FE7C5019F
:10104000B4010E943D1D81110DC02FEF3FEF4FE70E
:101050005FE7C501B4010E94DA1818161CF480E499
:1010600091E0CFCF2FEF3FEF4FE75FE4C701B6012D
:101070000E943E1C18161CF484E491E0C2CF2FEFAE
:101080003FEF4FE75FECC701B6010E94DA1887FD1A
:10109000F3CF20E030E0A901C701B6010E94DA18C1
:1010A000B12CA12C87FF0AC06DE28EE193E00E9473
:1010B0001C025C01F7FAF094F7F8F0942AE037ED9F
:1010C00043EA5BE3C701B6010E94531A2B013C01BE
:1010D0000E94AA1B6B017C010E94DF189B01AC01DE
:1010E000C301B2010E94521A2B013C014AE0C70120
:1010F000B6010E9499077C01EA0CFB1C6EE28EE1AE
:1011000093E00E941C02E80EF91E20E030E040E26D
:1011100051E4C301B2010E9440192B013C010E941D
:10112000AA1B4B01B12CA12C4AE0C501B4010E94BD
:101130009907E80EF91EC501B4010E94DF189B0152
:10114000AC01C301B2010E94521A20E030E040E23B
:1011500051E40E9440190E94AA1B90E080E04AE0FE
:101160000E949907E80EF91E4FCF2F923F924F929F
:101170005F926F927F928F929F92AF92BF92CF9227
:10118000DF92EF92FF920F931F93CF93DF93CDB730
:10119000DEB728970FB6F894DEBF0FBECDBFA8EC20
:1011A000B3E08D919C9121E02093AE0228E620933C
:1011B000D0021092AF021092D102DC01ED91FC91AD
:1011C0000190F081E02D6BE3099580E00E9493048B
:1011D0006EE088E60E94C4031092AD028093AC02D8
:1011E000E8ECF3E080819181DC01ED91FC910284D7
:1011F000F385E02D0995182FE8ECF3E080819181CB
:10120000DC01ED91FC910284F385E02D099520E04D
:10121000822B912B9093CB038093CA03E8ECF3E0ED
:1012200080819181DC01ED91FC910284F385E02DB8
:101230000995182FE8ECF3E080819181DC01ED91B4
:10124000FC910284F385E02D099520E0822B912BFF
:101250009093CD038093CC03E8ECF3E080819181FF
:10126000DC01ED91FC910284F385E02D0995182FA6
:10127000E8ECF3E080819181DC01ED91FC91028446
:10128000F385E02D099520E0822B912B9093CF03DD
:101290008093CE03E8ECF3E080819181DC01ED9155
:1012A000FC910284F385E02D0995182FE8ECF3E01A
:1012B00080819181DC01ED91FC910284F385E02D28
:1012C000099520E0822B912B9093D1038093D0033A
:1012D000E8ECF3E080819181DC01ED91FC910284E6
:1012E000F385E02D0995182FE8ECF3E080819181DA
:1012F000DC01ED91FC910284F385E02D099520E05D
:10130000822B912B9093D3038093D203E8ECF3E0EC
:1013100080819181DC01ED91FC910284F385E02DC7
:101320000995182FE8ECF3E080819181DC01ED91C3
:10133000FC910284F385E02D099520E0822B912B0E
:101340009093D5038093D403E8ECF3E080819181FE
:10135000DC01ED91FC910284F385E02D0995F82ED6
:10136000E8ECF3E080819181DC01ED91FC91028455
:10137000F385E02D099500E01F2D082B192B109304
:10138000D7030093D6036091D0037091D103072E49
:10139000000C880B990B0E94E11820E030EF41E42B
:1013A00056E40E94531A20E030E04AEA53E40E94D7
:1013B000311B6093E4037093E5038093E6039093FD
:1013C000E7036091CA037091CB03072E000C880BD2
:1013D000990B0E94E11820E030E040E858E30E94B9
:1013E00040196B017C01C092E803D092E903E092BE
:1013F000EA03F092EB036091CC037091CD03072ECA
:10140000000C880B990B0E94E11820E030E040E8C6
:1014100058E30E9440194B015C018092EC039092CA
:10142000ED03A092EE03B092EF036091CE037091B2
:10143000CF03072E000C880B990B0E94E11820E0C7
:1014400030E040E858E30E9440196093F003709345
:10145000F1038093F2039093F3039B01AC010E948C
:1014600040192B013C01A7019601C701B6010E945A
:101470004019A30192010E94531A0E94F91C9B017A
:10148000AC01C501B4010E94D21A2CE0222E24E046
:10149000322E20E030E044EB53E40E94401920E07B
:1014A00030E040E05FE30E9440192BED3FE049E46B
:1014B00050E40E94311BF101608371838283938326
:1014C000A5019401C501B4010E944019A301920134
:1014D0000E94531A0E94F91C9B01AC01C701B6017E
:1014E0000E94D21A20E030E044EB53E40E944019FD
:1014F00020E030E040E05FEB0E9440192BED3FE040
:1015000049E450E40E94311BA0E1B4E06D937D9367
:101510008D939C9313976091D4037091D503072EFC
:10152000000C880B990B0E94E11820E030E043E8A2
:1015300052E40E94311B6B017C016091D2037091D7
:10154000D303072E000C880B990B0E94E11820E0B2
:1015500030E043E852E40E94311B2091D8033091DF
:10156000D9034091DA035091DB030E94521A609331
:10157000F4037093F5038093F6039093F70320919F
:10158000DC033091DD034091DE035091DF03C7019E
:10159000B6010E94521A6093F8037093F903809386
:1015A000FA039093FB03B801110F880B990B0E946B
:1015B000E11820E030E043E852E40E94311B209122
:1015C000E0033091E1034091E2035091E3030E9474
:1015D000521A6093FC037093FD038093FE03909373
:1015E000FF032FB7F8946091A8027091A90280912F
:1015F000AA029091AB022FBF08E214E0F801C0806C
:10160000D180E280F3806C197D098E099F090E94C8
:10161000DF182FE632E143E85AE30E9440196B01DC
:101620007C01C0922404D0922504E0922604F0921A
:1016300027042091F4033091F5034091F603509173
:10164000F7030E9440192B013C01AC019B01609102
:1016500000047091010480910204909103040E949F
:10166000531A6093000470930104809302049093D2
:1016700003042091F8033091F9034091FA0350914B
:10168000FB03C701B6010E9440194B015C01AC018C
:101690009B0160910404709105048091060490916F
:1016A00007040E94531A6093040470930504809306
:1016B0000604909307042091FC033091FD034091B0
:1016C000FE035091FF03C701B6010E944019A8E034
:1016D000B4E02D913D914D915C910E94531A6D8320
:1016E0007E838F839887E8E0F4E060837183828350
:1016F0009383C0903004D0903104E0903204F09095
:10170000330480912C0490912D04A0912E04B0916B
:101710002F0489839A83AB83BC83A8E1B4E02D9125
:101720003D914D915C91C301B2010E94531AA701F2
:1017300096010E9440192B013C01F1012081318169
:101740004281538169817A818B819C810E944019F9
:101750009B01AC01C301B2010E94531AA8E1B4E09D
:101760006D937D938D939C931397ECE1F4E020812E
:10177000318142815381C501B4010E94531AA701EE
:1017800096010E9440196B017C01A0E1B4E02D910B
:101790003D914D915C9169817A818B819C810E9400
:1017A00040199B01AC01C701B6010E94531AECE13C
:1017B000F4E060837183828393838D819E81AF8106
:1017C000B8858093200490932104A0932204B093C1
:1017D00023042FB7F8948091A8029091A902A091B8
:1017E000AA02B091AB022FBFF80180839183A2833C
:1017F000B38328960FB6F894DEBF0FBECDBFDF913E
:10180000CF911F910F91FF90EF90DF90CF90BF90FD
:10181000AF909F908F907F906F905F904F903F9090
:101820002F900895CF93DF93EC01888199810097E1
:1018300011F00E94531F198218821D821C821B8284
:101840001A82DF91CF910895FC01808191810097E8
:1018500011F00C94531F089585ED8093BC00809186
:101860001A0390911B03A0911C03B0911D030796CE
:10187000A11DB11D23E0B695A795979587952A954B
:10188000D1F72091BC0024FD03C0109218030895E5
:1018900040911A0350911B0360911C0370911D032A
:1018A000452B462B472B69F30097A105B10541F065
:1018B0002AE22A95F1F700C00197A109B109E1CF09
:1018C000809119030C94A3030F931F93CF93DF937D
:1018D000EC0188819981009759F02A813B81261774
:1018E000370730F081E0DF91CF911F910F9108957C
:1018F0008B016F5F7F4F0E94DC1F009759F0998327
:1019000088831B830A832C813D81232B59F7FC019B
:101910001082E8CF80E0E7CFEF92FF920F931F9302
:10192000CF93DF93EC017B018A01BA010E94640C22
:1019300081110BC0CE010E94120CCE01DF91CF911C
:101940001F910F91FF90EF9008951D830C83B701B5
:10195000888199810E94A220F0CF1F920F920FB62A
:101960000F9211242F933F934F935F936F937F9325
:101970008F939F93AF93BF93EF93FF938EE193E089
:101980000E94FA01FF91EF91BF91AF919F918F91CA
:101990007F916F915F914F913F912F910F900FBE6B
:1019A0000F901F9018951F920F920FB60F9211244F
:1019B0002F938F939F93EF93FF93E0912E03F091DA
:1019C0002F038081E0913403F091350382FD1BC029
:1019D0009081809137038F5F8F7320913803821736
:1019E00041F0E0913703F0E0E25EFC4F958F809389
:1019F0003703FF91EF919F918F912F910F900FBE21
:101A00000F901F9018958081F4CF1F920F920FB600
:101A10000F9211242F933F938F939F93AF93BF9374
:101A20008091A8029091A902A091AA02B091AB0264
:101A300030917D0223E0230F2D3758F50196A11D2B
:101A4000B11D20937D028093A8029093A902A093D8
:101A5000AA02B093AB0280917E0290917F02A09186
:101A60008002B09181020196A11DB11D80937E027A
:101A700090937F02A0938002B0938102BF91AF91B7
:101A80009F918F913F912F910F900FBE0F901F90BC
:101A9000189526E8230F0296A11DB11DD2CF1F92E3
:101AA0000F920FB60F9211242F933F934F935F9392
:101AB0006F937F938F939F93AF93BF93EF93FF9316
:101AC0008091B900887F803609F44AC0F0F58832E9
:101AD00009F4A7C018F5803109F49BC0B8F4882335
:101AE00009F4F9C0883009F494C0FF91EF91BF91D7
:101AF000AF919F918F917F916F915F914F913F91A6
:101B00002F910F900FBE0F901F901895883109F4F8
:101B100088C0803251F78093F60214C0803409F4F3
:101B20009DC040F48033B9F38833F9F68093F60210
:101B300085ECB0C0803509F485C0883509F496C0BD
:101B4000883499F60E942C0CD0CF883909F48CC0C7
:101B500038F5883729F050F4883611F0803729F6A7
:101B600083E08093180310927C0257C0883809F4F0
:101B70007BC0803919F0803809F0B7CF80917C02A2
:101B8000803208F071C0E0917C0281E08E0F80937A
:101B90007C028091BB00F0E0E45AFD4F80833DC0A1
:101BA000803B39F0E0F4803A09F479C0883A09F0D2
:101BB0009CCF84E08093180310925B0210925A022B
:101BC000E0918402F0918502099580915A02811179
:101BD0000FC081E080935A0210923A0209C0803C03
:101BE00009F4A6CF883C09F4A3CF883B09F07DCF48
:101BF000E0915B0281E08E0F80935B02F0E0E65C97
:101C0000FD4F80818093BB0090915B0280915A02CE
:101C100029C08091F3028093BB0085EC8093BC00C7
:101C200064CF9091F5028091F402981758F5E091F5
:101C3000F50281E08E0F8093F502F0E0EE52FD4F49
:101C40008081E9CFE091F50281E08E0F8093F5026B
:101C50008091BB00F0E0EE52FD4F80839091F50241
:101C60008091F4029817C8F285E8D8CFE091F50288
:101C700081E08E0F8093F5028091BB00F0E0EE5280
:101C8000FD4F80838091F70281115CCF81E08093CA
:101C9000F20284EA8093BC001092180326CF85ECF0
:101CA0008093BC001092180380917C02803230F443
:101CB000E0917C02F0E0E45AFD4F108260917C02DA
:101CC00070E0E0918202F09183028CE592E0099548
:101CD00010927C020ACF1092F60234CFEEE1F3E0CC
:101CE0001382128288EE93E0A0E0B0E084839583B3
:101CF000A683B78329E131E03183208325EC30E0EE
:101D00003587248724EC30E03787268720EC30E0C5
:101D1000318B208B21EC30E0338B228B22EC30E0B6
:101D2000358B248B26EC30E0378B268B118E128E70
:101D3000138E148EECEBF3E013821282848395836E
:101D4000A683B7838BE291E091838083F093C903EC
:101D5000E093C8038AE097EDA3EABCE380932C04E8
:101D600090932D04A0932E04B0932F0488E491EE59
:101D7000AAE7BFE38093300490933104A093320428
:101D8000B09333040E94370687E08093BB0361E081
:101D90000E94D5020C946E06CF93DF93CDB7DEB7C9
:101DA000C654D1090FB6F894DEBF0FBECDBF7894EC
:101DB00084B5826084BD84B5816084BD85B5826050
:101DC00085BD85B5816085BD80916E008160809301
:101DD0006E0010928100809181008260809381006A
:101DE000809181008160809381008091800081607A
:101DF000809380008091B10084608093B1008091D5
:101E0000B00081608093B00080917A0084608093FC
:101E10007A0080917A00826080937A0080917A00C3
:101E2000816080937A0080917A00806880937A0044
:101E30001092C100E0912E03F0912F0382E0808385
:101E4000E0912A03F0912B031082E0912C03F09192
:101E50002D038FEC808310923603E0913203F091D2
:101E6000330386E08083E0913003F0913103808179
:101E700080618083E0913003F0913103808188603C
:101E80008083E0913003F09131038081806880830A
:101E9000E0913003F091310380818F7D808388E46D
:101EA00091E00E94DD070E9437061092AD02109269
:101EB000AC021092AF021092D1020E9485038AE711
:101EC00091E090938502809384028BE791E0909358
:101ED00083028093820260E089E10E94830560E0D2
:101EE0008AE10E94830568E08BE10E94830560E03F
:101EF0008CE10E94830561E08BE60E9483050E94CD
:101F0000B50810920004109201041092020410927D
:101F10000304109204041092050410920604109217
:101F2000070480910C0490910D04A0910E04B091CF
:101F30000F048093180490931904A0931A04B0938B
:101F40001B048091100490911104A0911204B0918F
:101F5000130480931C0490931D04A0931E04B0935B
:101F60001F042FB7F8948091A8029091A902A09124
:101F7000AA02B091AB022FBF80932804909329044A
:101F8000A0932A04B0932B0468EE73E080E090E005
:101F90000E942B0389E391E00E948C0786E891E080
:101FA0000E94DD078FEA91E00E94DD0788EC91E056
:101FB0000E948C07C12CD12C7601260137015701D4
:101FC000460110E000E0C80168EE73E00E94FF1DCA
:101FD000892B21F48CED91E00E948C078091C8033D
:101FE0009091C90321E02093AE0238E63093D002ED
:101FF0001092AF021092D102DC01ED91FC910190A0
:10200000F081E02D63E4099580E00E94930466E08E
:1020100088E60E94C4031092AD028093AC028091C6
:10202000C8039091C903DC01ED91FC910284F38512
:10203000E02D0995382E8091C8039091C903DC01E9
:10204000ED91FC910284F385E02D099539AA18AA37
:10205000E8A9F9A9E82BF92B2296FFAFEEAF22975A
:102060008091C8039091C903DC01ED91FC91028439
:10207000F385E02D0995382E8091C8039091C9030E
:10208000DC01ED91FC910284F385E02D099539AED8
:1020900018AEE8ADF9ADE82BF92B2696FFAFEEAF01
:1020A00026978091C8039091C903DC01ED91FC91C2
:1020B0000284F385E02D099527968FAF27978091AD
:1020C000C8039091C903DC01ED91FC910284F38572
:1020D000E02D09951C012296EEADFFAD2297BF01C0
:1020E000FF0F880B990B0E94E11820E030E043E8D5
:1020F00052E40E94311B9B01AC01C501B4010E9456
:10210000531A4B015C0126962EAD3FAD2697B901BF
:10211000330F880B990B0E94E11820E030E043E870
:1021200052E40E94311B9B01AC01C301B2010E9429
:10213000531A2B013C0127963FAD27973DAF1CAEAC
:102140006CAD7DAD62297329072E000C880B990BAD
:102150000E94E11820E030E043E852E40E94311B85
:102160009B01AC01C701B6010E94531A6B017C01AF
:102170000F5F1F4F083B4BE0140709F024CF20E00E
:1021800030E84BE355E4C501B4010E94311B609374
:10219000D8037093D9038093DA039093DB0320E094
:1021A00030E84BE355E4C301B2010E94311B609358
:1021B000DC037093DD038093DE039093DF0320E064
:1021C00030E84BE355E4C701B6010E94311B609330
:1021D000E0037093E1038093E2039093E30389E3C8
:1021E00091E00E948C078EED91E00E94DD078CE269
:1021F00092E00E948C076091D8037091D90380917E
:10220000DA039091DB030E94EB0784EE91E00E94D9
:102210008C076091DC037091DD038091DE03909167
:10222000DF030E94EB0789EE91E00E948C0760912A
:10223000E0037091E1038091E2039091E3030E9437
:10224000EB078EEE91E00E94DD0786E891E00E94A8
:102250008C0768EB7BE080E090E00E942B0361E05C
:1022600089E00E94D50261E085E00E94D50261E02C
:1022700086E00E94D50261E08AE00E94D50262E019
:1022800084E00E94D50261E088E00E94D50261E00E
:102290008EE00E94D50261E086E00E94890261E042
:1022A0008AE00E9489028FE79BEB0197F1F700C05B
:1022B000000060E08AE00E94890260E08FE00E94F6
:1022C000890261E08EE00E94890261E089E00E945B
:1022D000890260E085E00E9489029FEFA9EFB0E0EB
:1022E0009150A040B040E1F700C0000061E085E0FF
:1022F0000E94890268EC70E080E090E00E942B036D
:1023000064E480E00E94860661E481E00E94860623
:1023100060E082E00E9486066CE083E00E94860610
:102320006FE584E00E94860660E485E00E948606F0
:102330006EE186E00E94860660E087E00E948606E5
:1023400063E288E00E94860661E089E00E948606DA
:1023500080E00E94B70681E00E94B70682E00E94FA
:10236000B70683E00E94B70684E00E94B70685E0C6
:102370000E94B70686E00E94B70687E00E94B70673
:1023800088E00E94B70689E00E94B706FE013196F8
:102390001F019E01285D3F4F3FA72EA763E080E00D
:1023A0000E945D0760E081E00E945D0760E082E0DE
:1023B0000E945D0760E083E00E945D0780E00E946C
:1023C000300781E00E94300782E00E94300783E0FE
:1023D0000E94300740E05DE261E371E0C1010E94CC
:1023E000CF0689819A810E947A060E94B5088BE106
:1023F0000E94EE0668AB79AB8AAB9BAB8CE10E9486
:10240000EE064B015C0181E10E94EE062B013C01CE
:1024100080E10E94EE0668AF79AF8AAF9BAF82E1A0
:102420000E94EE066CAF7DAF8EAF9FAF68A979A911
:102430008AA99BA9AB01BC0180E090E0DC0148AB1C
:1024400059AB6AAB7BAB8CAB9DABAEABBFAB940176
:10245000A50160E070E080E090E0A8A8B9A8CAA853
:10246000DBA8E12CF12C00E010E00E94941EE9E0D2
:10247000AE2EB12CC12CD12C0E94371E0E94D91B2C
:102480009B01AC016DEB77E386E094E30E94311B86
:1024900024966CAF7DAF8EAF9FAF249788AD99AD7A
:1024A000AAADBBAD4C014CAD5DAD6EAD7FAD9A013B
:1024B000AB0160E070E0CB0128AB39AB4AAB5BAB62
:1024C0006CAB7DAB8EAB9FAB9401AD0160E070E077
:1024D00080E090E0A8A8B9A8CAA8DBA8E12CF12C5C
:1024E0000E94941E0E94D91B9B01AC0124966CADE6
:1024F0007DAD8EAD9FAD24970E9440196B017C018C
:10250000C301B2010E94DF182DEB37E346E054E32C
:102510000E9440199B01AC01C701B6010E94531AE9
:102520004B015C010E944B1C0E94A31B8B01072ED8
:10253000000C880B990B0E94E1189B01AC0160E034
:1025400070E080E291E40E94A31C9B01AC01C501F4
:10255000B4010E94311B6B017C0120E030E040E8B7
:102560005FE30E94DA1887FF15C020E030E0A90180
:10257000C701B6010E94DA18882361F020E030E03C
:1025800040E251E4C701B6010E9440196B017C0191
:1025900001501109C701B6010E94A31B762E672EB8
:1025A000582E492E1F9256E05F9361E172E07F93AF
:1025B0006F933F922F920E94A9201F930F93672D34
:1025C000762D852D942D0E94E1189B01AC01C70149
:1025D000B6010E94521A20E034E244E759E40E9416
:1025E00040190E94A31B9F938F937F936F934F92E9
:1025F0005F926F927F923F922F92A6E8B2E0BF93D4
:10260000AF930E94A92019A618A61BA61AA61DA65C
:102610001CA6A6E8B2E00D900020E9F7AD014758EE
:10262000524066E872E0CE0188960E948C0C1A82B5
:1026300019821C821B821E821D8250E040E06BE3E7
:1026400071E0C1010E948C0C0CA51DA50FB6F89479
:10265000DEBF0FBECDBF0115110511F1033011050D
:1026600010F003E010E0E8A5F9A5E00FF11FF080FD
:10267000108268A579A56115710509F471C1FB0186
:1026800001900020E9F73197AF01461B570BC101BC
:102690000E948C0C88A599A5080F191FD801FC92DF
:1026A00089819A81C12CD12C7601009721F00E945A
:1026B0002E156B017C01C1010E94240C20E030E842
:1026C00042EA54E4C701B6010E94401920E030E01C
:1026D00040E05FE30E9440192DEC3CEC4CEC5DE3E4
:1026E0000E9440196B017C011BA21AA21DA21CA210
:1026F0001FA21EA2810122E044E00E941015009753
:1027000009F432C1FC0101900020E9F73197AF01D3
:10271000481B590BBC01CE0182960E948C0C1A8278
:1027200019821C821B821E821D826AA17BA16115F7
:10273000710529F04EA15FA1C1010E948C0C0D8191
:102740001E810E5F1F4FB801C1010E94640C8823D7
:1027500009F40FC129813A818D819E8164E272E082
:10276000820F931F0E94A2201E830D834D815E81E4
:1027700069817A818EE193E00E947C0189E391E096
:102780000E948C07C1010E94240CCE0182960E94F7
:10279000240C26EF30E040E050E020939802309384
:1027A000990240939A0250939B0238E030939C0226
:1027B000C501B4010E94AA1B6093A002C701B60123
:1027C0000E94AA1B6093A1026091180470911904E1
:1027D00080911A0490911B040E94AA1B6093A2028C
:1027E00060911C0470911D0480911E0490911F043F
:1027F0000E94AA1B6093A30260912004709121049F
:1028000080912204909123040E94AA1B6093A40249
:102810006091E8037091E9038091EA039091EB03E2
:102820000E94AA1B6093A5026093A6026093A70270
:1028300086E0E6E0F1E0DE01929601900D928A9545
:10284000E1F78E010E5D1F4FD801CD90DD908D0117
:102850007601EE0CFF1CF701EC0DFD1DE45FFE4F51
:10286000B0800E947D0683E00E9473068B2D0E943B
:10287000730680E00E947306A82E0E946E06A3FCD9
:10288000C8C010919C02193008F0A4C08091980231
:1028900090919902A0919A02B0919B02AC01BD0166
:1028A000442777FD4395552766277727242FAC01CA
:1028B000BD01442755276627707444244A94542C3C
:1028C000642CFFE17F2E211106C044244A94E7E0E6
:1028D0005E2E612C712C84219521A621B721222303
:1028E00009F44BC08C839B83CD01AA27BB27282FDB
:1028F000220F220F220F207E382F33703860232BB7
:102900002A8335E0969587953A95E1F78983812F5B
:10291000452B462B472B09F080648D83412F50E0D7
:1029200060EA72E0CE0106960E9499201B5FF701D3
:10293000EC0DFD1DE45FFE4F01810E947D0682E0EB
:102940000E947306802F0E94730671018E2D8219DA
:10295000811708F5F70181917F010E947306F6CF78
:10296000C1010E94120C96CECE0182960E94120CDA
:10297000D6CEC1010E94120CF9CE9C0193E036958F
:1029800027959A95E1F729838295880F807E8A831F
:102990001C821B82BCCF0E946E060E947D0685E0D1
:1029A0000E9473068B2D0E94730688E00E947306B6
:1029B00088E00E9473060E946E060E947D0683E0F6
:1029C0000E9473068B2D0E94730680E00E9473069E
:1029D0000E946E06CE0188960E94240C87E292E047
:1029E0000E948C07609118047091190480911A0458
:1029F00090911B040E94EB0740E050E0452B09F446
:102A0000CDCC0E94E601882309F4C8CC0E940000C6
:102A1000C5CC2EA53FA52017310709F015CFDACF79
:102A2000EF920F931F93CF93DF93E80134E047FDBC
:102A300034E1042E000C550B57FF03C0519541950E
:102A40005109E32E022F242FAE010E943215CE0130
:102A5000DF91CF911F910F91EF900895662777270F
:102A60000C949116A9E0B0E0E8E3F5E10C94121A99
:102A70006A01F22EB02E102FFBE3AF2EA01608F441
:102A80001BE31F5F012F27E0AE014F5F5F4F0E94E6
:102A9000E117BC018981982F9970913009F43FC0EA
:102AA0009BE2E1FC04C09E2D9170E0FC3AC05E2DDB
:102AB0005071E82FE87083FF46C084E0911101C097
:102AC00083E0EF2DE81B8F1508F0E0E0D6018E2F94
:102AD00020E2552351F1992329F0D6019C93C60198
:102AE00001966C0196012D5F3F4FE2FE24C08EE4FB
:102AF000D6018C9391E411969C93119712968C9326
:102B0000D9018E2F90E281111BC0E20FF32FF11D2E
:102B100010828EEF9FEF2996ECE00C942E1A9DE226
:102B2000C6CF90E2C4CF2D9381508111FCCFCE0E41
:102B3000D11CE0E0D0CF8EE6D6018C9391E6DBCFBE
:102B40009D938150E0CF482F447082FF3DC084E0C8
:102B5000911101C083E08F1510F4EF2DE81BD60111
:102B60008E2F20E2552309F1992329F0D6019C9359
:102B7000C60101966C0196012D5F3F4FE2FE1BC01E
:102B800089E4D6018C938EE411968C93119786E498
:102B900012968C93D9018E2F90E2882309F4B5CF39
:102BA0009D938150FACF2D9381508111FCCFCE0E91
:102BB000D11CE0E0D9CF89E6D6018C938EE6119640
:102BC0008C93119786E6E4CF9B0177FF02C030E03B
:102BD00020E0A1E0B0E0911102C0B0E0A0E0F90176
:102BE0003196AE0FBF1F8B2C912CBB2009F461C016
:102BF0005401EFEFAE1ABE0AAA0DBB1DFA161B0652
:102C000019F014F04F2D4A1B511188C0E3FC59C034
:102C10007601A42FB0E2A1114FC0C40ED11C99239C
:102C200009F45BC040E0D6011196F60190836D0176
:102C3000552309F448C0012F060F9A81582F50716F
:102C400084FF03C0913309F4015010160CF047C003
:102C5000093008F008E0EEE2FE2E5B01A01AB10890
:102C600085019194819491082F3F320729F4D60170
:102C7000FC92F60131966F016217730794F1021707
:102C800013077CF5DB01A21BB30BAA24A394B12C80
:102C9000AC0EBD1EAA0DBB1D11968C9121503109A1
:102CA000D601119628153905F4F0F60180836D01DF
:102CB000DBCFB12CA12CA0CFF701B1937F01A150A4
:102CC000AACF9111B0CFD601942F50E302C05D93EB
:102CD00091509111FCCFC40ED11C40E0ACCF01E06B
:102CE000BACF80E3DBCF6217730731F4963388F4F1
:102CF000953311F4552369F0F6018083FD01842F8B
:102D000090E2811108C0A40FB11D1C9290E080E0F8
:102D100002CF81E3F1CF91938150F3CF911183CF13
:102D20008ACFB0E0A0E0E7E9F6E10C94121A5C016A
:102D30007B016115710519F0DB018D939C93850171
:102D40000F5F1F4FF501D0818D2F90E00E94B918C1
:102D50006C01892BB9F5DD32B9F50F5F1F4FD50135
:102D60001196DC91C1E05801F1E0AF1AB10843E0DF
:102D700050E060E271E0C5010E94C218892B69F53C
:102D8000680182E0C80ED11C45E050E06BE171E0C3
:102D9000C6010E94C218892B21F4680197E0C90E70
:102DA000D11CE114F10419F0D701CD92DC9260E05E
:102DB00070E080E89FEFC111FFC060E070E080E844
:102DC0009FE7FAC05801BBCFDB3229F485010E5FC3
:102DD0001F4FF501D181C0E0C6CF43E050E068E16C
:102DE00071E0C5010E94C218892BE9F0F80110E0DA
:102DF00000E020E030E0A9015F01B0ED8B2E8D0EE8
:102E000089E08815C8F19C2E689491F88C2F887001
:102E1000C2FF16C0811102C00F5F1F4F3196D5014E
:102E2000DC91C92DE9CFE114F10429F00E5F1F4FA9
:102E3000F7011183008360E070E080EC9FE7BCC085
:102E4000882311F001501109A5E0B0E00E94011A99
:102E50009B01AC01220F331F441F551F280D311D4C
:102E6000411D511D283999E93907490799E1590749
:102E7000A8F2C6609C2ED2CFAEEF8A1206C0C3FD68
:102E80003CC09C2E689493F8C9CFDF7DD534A9F55A
:102E900080818D3239F4C061DF011296818162E058
:102EA00070E006C0DF018B32C1F3119661E070E083
:102EB00080535D01A61AB70A8A30F8F4E0E8CE160E
:102EC000ECE0DE065CF4B601660F771F660F771F35
:102ED000C60ED71ECC0CDD1CC80ED11C5D01FFEF49
:102EE000AF1ABF0A8C9180538A30A8F1C4FF03C087
:102EF000D194C194D1080C0D1D1DC1FF09C0E1146E
:102F0000F10431F081E0A81AB108D701AD92BC926A
:102F1000CA01B9010E94DF18C370C33009F4905888
:102F20004B015C0120E030E0A9010E94DA188823FF
:102F300009F440C0CFE4D1E017FF05C01195019519
:102F40001109C7E3D1E06E01B8E1CB1AD10880E2E4
:102F5000E82EF12C0FC0D501B1CFFE01259135919E
:102F6000459154910E191F09C501B4010E944019E1
:102F70004B015C01D501C4010E151F0574F72497A0
:102F8000F594E794CC16DD06A9F78A2F880F8B2FCE
:102F9000881F8F3F49F020E030E0A901C501B4014E
:102FA0000E94DA18811106C082E290E09093390401
:102FB00080933804C501B401CDB7DEB7ECE00C94C2
:102FC0002E1A283008F027E03327DA01990F311D37
:102FD00087FD916000966105710539F432602E5FBE
:102FE0003D9330E32A95E1F708959F3F30F0803814
:102FF0007105610509F03C5F3C5F3D93913008F03D
:103000008068911DDF93CF931F930F93FF92EF92F0
:10301000192F987F9695E92F96959695E90FFF279A
:10302000E355FE4F99273327EE24FF24A701E7013C
:1030300005900894079428F4360FE71EF81E491FE0
:10304000511D660F771F881F991F0694A1F70590E1
:10305000079428F4E70EF81E491F561FC11D770F6D
:10306000881F991F661F0694A1F70590079428F4FE
:10307000F80E491F561FC71FD11D880F991F661FC5
:10308000771F0694A1F70590079420F4490F561F67
:10309000C71FD81F990F661F771F881F0694A9F7AF
:1030A00084911095177041F0D695C795579547951F
:1030B000F794E7941A95C1F7E3E5F1E06894159069
:1030C000159135916591959105907FE27395E11881
:1030D000F10A430B560BC90BD009C0F7E10CF11EE6
:1030E000431F561FC91FD01D7EF4703311F48A95FB
:1030F000E6CFE894015030F0080F0AF400270217D9
:1031000008F4202F2395022F7A3328F079E37D935A
:103110002A95E9F710C07D932A9589F6069497952C
:103120006795379517951794E118F10A430B560BDD
:10313000C90BD00998F023957E9173957A3308F0E6
:1031400070E37C932013B8F77E9170617D9330F02B
:10315000839571E37D9370E32A95E1F71124EF9055
:10316000FF900F911F91CF91DF91992787FD909547
:10317000089591110C94AD19803219F08950855041
:10318000C8F70895FB01DC014150504088F08D9153
:1031900081341CF08B350CF4805E659161341CF039
:1031A0006B350CF4605E861B611171F3990B089509
:1031B000881BFCCF0E941C1908F481E00895E89454
:1031C00009C097FB3EF490958095709561957F4F6F
:1031D0008F4F9F4F9923A9F0F92F96E9BB2793951D
:1031E000F695879577956795B795F111F8CFFAF42D
:1031F000BB0F11F460FF1BC06F5F7F4F8F4F9F4F5E
:1032000016C0882311F096E911C0772321F09EE8BB
:10321000872F762F05C0662371F096E8862F70E021
:1032200060E02AF09A95660F771F881FDAF7880FFB
:103230009695879597F90895990F0008550FAA0B51
:10324000E0E8FEEF16161706E807F907C0F01216B9
:103250001306E407F50798F0621B730B840B950BBC
:1032600039F40A2661F0232B242B252B21F4089511
:103270000A2609F4A140A6958FEF811D811D0895AE
:103280000E9453190C94C7190E94B91938F00E9472
:10329000C01920F0952311F00C94B0190C94B619B4
:1032A00011240C94FB190E94D81970F3959FC1F357
:1032B000950F50E0551F629FF001729FBB27F00DE4
:1032C000B11D639FAA27F00DB11DAA1F649F662739
:1032D000B00DA11D661F829F2227B00DA11D621F88
:1032E000739FB00DA11D621F839FA00D611D221F42
:1032F000749F3327A00D611D231F849F600D211D26
:10330000822F762F6A2F11249F5750409AF0F1F0A8
:1033100088234AF0EE0FFF1FBB1F661F771F881F11
:1033200091505040A9F79E3F510580F00C94B01980
:103330000C94FB195F3FE4F3983ED4F386957795A0
:103340006795B795F795E7959F5FC1F7FE2B880FB7
:10335000911D9695879597F908959927882708953F
:1033600097F99F6780E870E060E008959FEF80EC38
:10337000089500240A9416161706180609060895DB
:1033800000240A9412161306140605060895092E41
:103390000394000C11F4882352F0BB0F40F4BF2BB0
:1033A00011F460FF04C06F5F7F4F8F4F9F4F0895F0
:1033B00057FD9058440F551F59F05F3F71F04795E6
:1033C000880F97FB991F61F09F3F79F087950895CB
:1033D000121613061406551FF2CF4695F1DF08C0EA
:1033E000161617061806991FF1CF86957105610507
:1033F00008940895E894BB2766277727CB0197F9AF
:1034000008950E94431AA59F900DB49F900DA49F0C
:10341000800D911D112408952F923F924F925F923B
:103420006F927F928F929F92AF92BF92CF92DF92D4
:10343000EF92FF920F931F93CF93DF93CDB7DEB739
:10344000CA1BDB0B0FB6F894DEBF0FBECDBF0994CD
:103450002A88398848885F846E847D848C849B8424
:10346000AA84B984C884DF80EE80FD800C811B8132
:10347000AA81B981CE0FD11D0FB6F894DEBF0FBE61
:10348000CDBFED010895A29FB001B39FC001A39FDE
:10349000700D811D1124911DB29F700D811D11248D
:1034A000911D08955058BB27AA270E946A1A0C94B0
:1034B000C7190E94B91938F00E94C01920F039F4D8
:1034C0009F3F19F426F40C94B6190EF4E095E7FB2F
:1034D0000C94B019E92F0E94D81958F3BA17620753
:1034E00073078407950720F079F4A6F50C94FA1970
:1034F0000EF4E0950B2EBA2FA02D0B01B90190010F
:103500000C01CA01A0011124FF27591B99F0593F52
:1035100050F4503E68F11A16F040A22F232F342F9A
:103520004427585FF3CF469537952795A795F040E8
:103530005395C9F77EF41F16BA0B620B730B840BFD
:10354000BAF09150A1F0FF0FBB1F661F771F881FB5
:10355000C2F70EC0BA0F621F731F841F48F487950D
:1035600077956795B795F7959E3F08F0B0CF9395FF
:10357000880F08F09927EE0F9795879508950E9478
:10358000B91960F080E891E009F49EEF0E94C0193B
:1035900028F040E851E071F45EEF0CC00C94B619CD
:1035A0000C94FA19E92FE0780E94D81940F3092EFB
:1035B000052AB1F3261737074807590738F00E2EAA
:1035C00007F8E02569F0E025E0640AC0EF6307F83A
:1035D000009407FADB01B9019D01DC01CA01AD01CC
:1035E000EF930E94481B0E94C7190E94021B5F9123
:1035F000552339F02BED3FE049E450FD49EC0C94A4
:10360000531A0895DF93DD27B92FBF7740E85FE3B2
:103610001616170648075B0718F4D92F0E94431C9B
:103620009F938F937F936F930E94391DE8E6F0E09C
:103630000E94171C0E94C7192F913F914F915F91D3
:103640000E945319DD2351F09058A2EA2AED3FE081
:1036500049EC5FE3D0785D270E946A1ADF910C94F1
:10366000C7190E94451B0C94C7190E94C01958F035
:103670000E94B91940F029F45F3F29F00C94B01969
:1036800051110C94FB190C94B6190E94D81968F3C7
:103690009923B1F3552391F3951B550BBB27AA270B
:1036A00062177307840738F09F5F5F4F220F331F45
:1036B000441FAA1FA9F335D00E2E3AF0E0E832D00D
:1036C00091505040E695001CCAF72BD0FE2F29D010
:1036D000660F771F881FBB1F261737074807AB07E2
:1036E000B0E809F0BB0B802DBF01FF2793585F4F57
:1036F0003AF09E3F510578F00C94B0190C94FB19E8
:103700005F3FE4F3983ED4F3869577956795B79538
:10371000F7959F5FC9F7880F911D9695879597F943
:103720000895E1E0660F771F881FBB1F62177307BC
:103730008407BA0720F0621B730B840BBA0BEE1FD1
:1037400088F7E09508950E94AA1B6894B1110C9423
:10375000FB1908950E94E01988F09F5798F0B92F3F
:103760009927B751B0F0E1F0660F771F881F991FB6
:103770001AF0BA95C9F714C0B13091F00E94FA1945
:10378000B1E008950C94FA19672F782F8827B85F55
:1037900039F0B93FCCF3869577956795B395D9F70E
:1037A0003EF490958095709561957F4F8F4F9F4F18
:1037B0000895E894F92F96EBFF2381F01216130673
:1037C0001406440B9395F6958795779567955795CD
:1037D0004040FF23B9F71BC099270895882351F46F
:1037E0009850D2F7872B762F652F542F432F322FE7
:1037F00020E0B1F3121613061406440B88233AF0A6
:103800009A95440F551F661F771F881FCAF75523C7
:103810004AF4440F551F11F460FF04C06F5F7F4FDF
:103820008F4F9F4F880F9695879597F90895DF934F
:10383000CF931F930F93FF92EF92DF927B018C0146
:10384000689406C0DA2EEF010E945319FE01E89435
:10385000A5912591359145915591A6F3EF010E94CF
:103860006A1AFE019701A801DA9469F7DF90EF90D8
:10387000FF900F911F91CF91DF9108950E941C1925
:1038800008F48FEF08959B01AC0160E070E080E8E0
:103890009FE30C94311B0E945B1C29ED3BE54EED30
:1038A0005EE30C94401916F00C947C1D0C94B61930
:1038B00068940C94B0190E94E019A8F39923C1F3FD
:1038C000AEF3DF93CF931F930F93FF92C92FDD27A2
:1038D00088232AF02197660F771F881FDAF720E0E8
:1038E00030E040E85FEB9FE3883920F0803E38F01D
:1038F00021968F770E94531AE5E9F0E004C00E94F8
:10390000531AE2ECF0E00E94171C8B01BE01EC019F
:10391000FB2E6F5771097595771F880B990B0E94C5
:10392000E11828E132E741E35FE30E945319AF2D2C
:103930009801AE01FF900F911F91CF91DF910E94EE
:103940006A1A0C94C719FA01EE0FFF1F3096210571
:103950003105A1F16115710561F48038BFE39B0762
:1039600049F168949038810561F08038BFEF9B077A
:1039700041F099234AF5FF3FE1053105210519F191
:10398000E8940894E795D901AA2329F4AB2FBE2F18
:10399000F85FD0F310C0FF5F70F4A695E0F7F73939
:1039A00050F019F0FF3A38F49F779F930DD00F90A5
:1039B00007FC9058089546F00C94B61960E070E04A
:1039C00080E89FE308954FE79F775F934F933F937E
:1039D0002F930E945B1C2F913F914F915F910E940A
:1039E00040190C944A1D19F416F40C94B6190C9451
:1039F0007C1D0E94E019B8F39923C9F3B6F39F57D1
:103A0000550B87FF0E948A1D0024A0E640EA900122
:103A100080585695979528F4805C660F771F881F0D
:103A200020F026173707480730F4621B730B840B0E
:103A3000202931294A2BA695179407942025312552
:103A40004A2758F7660F771F881F20F02617370779
:103A5000480730F4620B730B840B200D311D411DA0
:103A6000A09581F7B901842F9158880F9695879575
:103A700008959B01AC010C9440190E941C19880BFD
:103A8000990B089529F416F00C94B0190C94FA19B6
:103A90000C94B6190E94E019A8F39638A0F707F81D
:103AA0000F92E8942BE33AEA48EB5FE70E9456193D
:103AB0000F920F920F924DB75EB70F920E94CB1DDF
:103AC000EFEEF0E00E94171C4F915F91EF91FF9194
:103AD000E595EE1FFF1F49F0FE57E0684427EE0F03
:103AE000441FFA95E1F74195550B0E94951D0F90E3
:103AF00007FE0C94431C08959F3F31F0915020F431
:103B0000879577956795B795880F911D96958795B9
:103B100097F9089591505040660F771F881FD2F78C
:103B200008950C94B0190C947C1D0E94E019D8F3F0
:103B30009923C9F3940F511DA3F39150504094F071
:103B400059F0882332F0660F771F881F915050403C
:103B5000C1F79E3F51052CF7880F911D96958795CB
:103B600097F908955F3FACF0983E9CF0BB2786958F
:103B700077956795B79508F4B1609395C1F7BB0F3A
:103B800058F711F460FFE8CF6F5F7F4F8F4F9F4F63
:103B9000E3CF0C94FB19FA01DC01AA0FBB1F9B01B8
:103BA000AC01BF5728F4222733274427507820C080
:103BB000B75190F4AB2F0024469537952795011CFB
:103BC000A395D2F3002071F0220F331F441FB39549
:103BD000DAF30ED00C94521A61307105A0E88A070E
:103BE000B94630F49B01AC01662777278827907887
:103BF000309621F02083318342835383089597FBCD
:103C0000072E16F4009407D077FD09D00E949D1E60
:103C100007FC05D03EF4909581959F4F08957095CF
:103C200061957F4F0895A1E21A2EAA1BBB1BFD01CF
:103C30000DC0AA1FBB1FEE1FFF1FA217B307E4078B
:103C4000F50720F0A21BB30BE40BF50B661F771FE3
:103C5000881F991F1A9469F76095709580959095C3
:103C60009B01AC01BD01CF010895689401C0E894A7
:103C70008F929F92CF93DF930E94431EDF91CF914B
:103C80009F908F90089588249924F401E401B0E472
:103C90009F93AA279A158B049C04ED05FE05CF057A
:103CA000D007A10798F4AD2FDC2FCF2FFE2FE92DE1
:103CB000982C892E982F872F762F652F542F432FDE
:103CC000322F2227B85031F7BF9127C01B2EBF914A
:103CD000BB27220F331F441F551F661F771F881FE6
:103CE000991F881C991CEE1FFF1FCC1FDD1FAA1FE8
:103CF000BB1F8A149B04EC05FD05CE05DF05A0075C
:103D0000B10748F08A189B08EC09FD09CE09DF09C4
:103D1000A00BB10B21601A94E1F62EF49401AF01CF
:103D2000BE01CD01000C08952A193B094C095D091B
:103D30006E097F09800B910B0895AA1BBB1B51E1F3
:103D400007C0AA1FBB1FA617B70710F0A61BB70B0B
:103D5000881F991F5A95A9F780959095BC01CD01B0
:103D60000895EE0FFF1F0590F491E02D09940F9335
:103D70001F93CF93DF938230910510F482E090E09F
:103D8000E0913C04F0913D0430E020E0B0E0A0E0A0
:103D9000309799F42115310509F44AC0281B390BD5
:103DA00024303105D8F58A819B816115710589F12F
:103DB000FB0193838283FE0111C040815181028106
:103DC000138148175907E0F04817590799F41097DD
:103DD00061F012960C93129713961C933296CF01B2
:103DE000DF91CF911F910F91089500933C041093A0
:103DF0003D04F4CF2115310551F04217530738F037
:103E0000A901DB019A01BD01DF01F801C1CFEF017A
:103E1000F9CF90933D0480933C04CDCFFE01E20F97
:103E2000F31F819391932250310939832883D7CF8F
:103E300020913A0430913B04232B41F4209102015C
:103E40003091030130933B0420933A042091000108
:103E5000309101012115310541F42DB73EB7409154
:103E6000040150910501241B350BE0913A04F091B7
:103E70003B04E217F307A0F42E1B3F0B281739076A
:103E800078F0AC014E5F5F4F2417350748F04E0FB6
:103E90005F1F50933B0440933A04819391939FCFCB
:103EA000F0E0E0E09CCFCF93DF930097E9F0FC01D6
:103EB000329713821282A0913C04B0913D04ED012F
:103EC00030E020E01097A1F420813181820F931F10
:103ED00020913A0430913B042817390709F061C05A
:103EE000F0933B04E0933A04DF91CF910895EA0107
:103EF000CE17DF07E8F54A815B819E014115510528
:103F0000B1F7E901FB83EA8349915991C40FD51FA9
:103F1000EC17FD0761F4808191810296840F951F53
:103F2000E90199838883828193819B838A83F0E06E
:103F3000E0E012968D919C9113970097B9F52D9121
:103F40003C911197CD010296820F931F20913A0464
:103F500030913B042817390739F6309751F5109204
:103F60003D0410923C04B0933B04A0933A04BCCFB0
:103F7000D383C28340815181840F951FC817D9070D
:103F800061F44E5F5F4F88819981480F591F5183BB
:103F900040838A819B81938382832115310509F0B7
:103FA000B0CFF0933D04E0933C049ECFFD01DC01D3
:103FB000C0CF13821282D7CFB0E0A0E0E2EEFFE1E3
:103FC0000C940E1A8C01009751F4CB010E94B71E7D
:103FD0008C01C801CDB7DEB7E0E10C942A1AFC01D0
:103FE000E60FF71F9C0122503109E217F30708F48E
:103FF0009DC0D901CD91DC911197C617D70798F0D4
:10400000C530D10530F3CE0104978617970708F322
:10401000C61BD70B2297C193D1936D937C93CF018D
:104020000E94531FD6CF5B01AC1ABD0A4C018C0E07
:104030009D1EA0913C04B0913D04512C412CF12CCB
:10404000E12C109731F580913A0490913B0488154A
:10405000990509F05CC04616570608F058C08091D3
:10406000000190910101009741F48DB79EB74091F6
:10407000040150910501841B950BE817F90708F01E
:1040800055C0F0933B04E0933A04F90171836083D7
:10409000A0CF8D919C91119712966C9012971396C8
:1040A0007C901397A815B90559F56C0142E0C40E30
:1040B000D11CCA14DB0420F1AC014A195B09DA01F6
:1040C0001296159780F06282738251834083D901E2
:1040D0006D937C93E114F10471F0D7011396FC9376
:1040E000EE93129776CF22968C0F9D1FF901918344
:1040F0008083F301EFCFF0933D04E0933C0469CF5C
:104100004816590608F42C017D01D3019ACFCB0142
:104110000E94B71E7C01009749F0AE01B8010E94D1
:104120009920C8010E94531F870153CF10E000E07F
:1041300050CFFB01DC0102C001900D924150504074
:10414000D8F70895FB01DC0101900D920020E1F702
:104150000895AEE0B0E0EFEAF0E20C941A1A0D898F
:104160001E8986E08C831A8309838FEF9FE79E83E5
:104170008D83AE01475E5F4F6F89788DCE010196CA
:104180000E94CC202F813885020F131FF801108266
:104190002E96E4E00C94361AABE0B0E0E2EDF0E2EB
:1041A0000C940C1A7C013B018A01FC0117821682D7
:1041B000838181FFC8C1CE0101965C01F701938123
:1041C000F30193FD859193FF81913F01882309F4C9
:1041D00053C1853239F493FD859193FF81913F015D
:1041E000853229F4B70190E00E94BC22E7CF912CE0
:1041F000212C312CFFE1F31538F08B3211F190F4C2
:10420000803209F1833229F137FC3CC020ED280FC0
:104210002A3050F536FE20C08AE0989E200D1124E9
:10422000922E06C08D3291F0803371F7689430F889
:10423000F30193FD859193FF81913F018111DACFC5
:1042400021C0689431F8689432F8F2CF689433F85A
:10425000EFCF689434F8ECCFEAE02E9E200D1124C5
:10426000222E689435F8E4CF8E3229F436FC04C14E
:10427000689436F8DDCF8C3619F4689437F8D8CFC7
:104280008836B1F2982F9F7D95549330E0F08336B5
:10429000A1F18337C1F1833509F063C02801F2E051
:1042A0004F0E511CF801C080D180692D70E036FCA2
:1042B00002C06FEF7FEFC6010E94A6224C016894F6
:1042C00037F882010AC00C5F1F4FFFE3F98388248F
:1042D0008394912C6501E89437F833FE2DC0522C5D
:1042E0008114910471F5552009F468CFB70180E27B
:1042F00090E00E94BC225A94F6CFF8018081898315
:104300000E5F1F4FE4CF2801F2E04F0E511CF80161
:10431000C080D180692D70E036FC02C06FEF7FEF66
:10432000C6010E94B1224C018201D5CFB70180E2C3
:1043300090E00E94BC222A942814190409F0B0F7D6
:10434000CECFF60137FC859137FE81916F01B70121
:1043500090E00E94BC2251105A94F1E08F1A91080B
:10436000BFCF843619F0893609F077C0F80137FEDF
:104370006BC060817181828193810C5F1F4FF32D2F
:10438000FF763F2E97FF09C09095809570956195B7
:104390007F4F8F4F9F4F689437F82AE030E0A50198
:1043A0000E94EC22C82ECA188C2C432C36FE0CC05E
:1043B000E89440F8C91440F434FE05C032FC03C050
:1043C000F32DFE7E4F2E892C44FE95C0FE01EC0D90
:1043D000F11D8081803309F087C0242D297E422E73
:1043E000842D8870582E43FC95C040FE8FC09C2CB5
:1043F000821418F42C0C922C981844FE91C0B7012A
:1044000080E390E00E94BC2242FE09C088E790E071
:1044100041FE02C088E590E0B7010E94BC22C914A9
:1044200008F48AC0CA94D12C9FEFC91AD90ACA0CC1
:10443000DB1CF60182916F01B70190E00E94BC2263
:10444000AC14BD04B1F74FCF60817181072E000C11
:10445000880B990B0E5F1F4F92CFD32CE894D4F8A2
:104460002AE030E0853739F1232D297FD22E8F368F
:1044700001F148F48835A9F0F701868197812B96E0
:10448000E2E10C94281A803749F08837A9F7D4FE66
:1044900002C06894D2F820E130E00DC06894D4F8EE
:1044A000F6CF34FE03C0822F8660D82E20E132E0A2
:1044B00002C028E030E0F801D7FE0FC060817181B2
:1044C000828193810C5F1F4FA5010E94EC22C82EB0
:1044D000CA183D2CE89437F867CF6081718190E06D
:1044E00080E00E5F1F4FF0CF42FC02C0839478CF74
:1044F0008394839475CF842D867809F471CFF6CF99
:10450000B70180E290E00E94BC2283948214C0F341
:10451000512C73CF522C5818821408F46ECFF8CF58
:10452000842D867809F47BCF8BE241FE80E247FC44
:104530008DE2B70190E071CFB70180E390E00E9477
:10454000BC229A946CCF8FEF9FEF99CFFC0105901E
:10455000615070400110D8F7809590958E0F9F1F85
:104560000895FC016150704001900110D8F78095CA
:1045700090958E0F9F1F08950F931F93CF93DF93F6
:10458000182F092FEB018B8181FD09C01FEF0FEF61
:10459000812F902FDF91CF911F910F91089582FF6E
:1045A00014C02E813F818C819D81281739073CF4EE
:1045B000E881F981CF0101969983888310838E81E8
:1045C0009F8101969F838E83E3CFE885F985812FB4
:1045D0000995892BA1F3DACFFA01AA27283051F1E6
:1045E000203181F1E8946F936E7F6E5F7F4F8F4F24
:1045F0009F4FAF4FB1E03ED0B4E03CD0670F781F83
:10460000891F9A1FA11D680F791F8A1F911DA11D67
:104610006A0F711D811D911DA11D20D009F46894A0
:104620003F912AE0269F11243019305D3193DEF648
:10463000CF010895462F4770405D4193B3E00FD0FE
:10464000C9F7F6CF462F4F70405D4A3318F0495DE9
:1046500031FD4052419302D0A9F7EACFB4E0A695CC
:104660009795879577956795BA95C9F700976105EE
:10467000710508959B01AC010A2E06945795479544
:1046800037952795BA95C9F7620F731F841F951F39
:10469000A01D0895F894FFCF00003E0480000000A4
:1046A00001000200303136404146505156000000B2
:1046B000001C027C01A9016902DA01B801CC0100E9
:1046C0000000000506D8053406AE05D105BE05AFCD
:1046D000050D0A006E616E00696E66006F766600F9
:1046E0002D2D2D2D2D2D2D2D2D2D2D2D2D2D2D2DFA
:1046F0002D2D2D2D2D2D50726F6772616D205374ED
:104700006172742D2D2D2D2D2D2D2D2D2D2D2D2D19
:104710002D2D2D2D2D2D2D2D2D2D2D2D2C003D3DD7
:104720003D3D3D3D3D3D3D3D3D3D3D3D3D3D3D3DB9
:104730003D3D3D3D3D3D3D3D3D3D3D3D3D3D3D3DA9
:104740003D3D3D3D3D3D0043616C63756C61746969
:104750006E67206779726F206F6666736574730089
:10476000444F204E4F54204D4F5645204D50553606
:10477000303530002E00446F6E65210059203A20FC
:10478000005A203A200050726F6772616D2077697D
:104790006C6C20737461727420616674657220336E
:1047A000207365636F6E64730025256C642E252568
:1047B0003025646C64204525252B64004D4D006137
:0A47C0006E676C6558203A20000077
:107E0000112484B714BE81FFF0D085E080938100F7
:107E100082E08093C00088E18093C10086E0809377
:107E2000C20080E18093C4008EE0C9D0259A86E02C
:107E300020E33CEF91E0309385002093840096BBD3
:107E4000B09BFECF1D9AA8958150A9F7CC24DD24C4
:107E500088248394B5E0AB2EA1E19A2EF3E0BF2EE7
:107E6000A2D0813461F49FD0082FAFD0023811F036
:107E7000013811F484E001C083E08DD089C08234E0
:107E800011F484E103C0853419F485E0A6D080C0E4
:107E9000853579F488D0E82EFF2485D0082F10E0AE
:107EA000102F00270E291F29000F111F8ED06801E7
:107EB0006FC0863521F484E090D080E0DECF843638
:107EC00009F040C070D06FD0082F6DD080E0C81688
:107ED00080E7D80618F4F601B7BEE895C0E0D1E017
:107EE00062D089930C17E1F7F0E0CF16F0E7DF06D8
:107EF00018F0F601B7BEE89568D007B600FCFDCFD4
:107F0000A601A0E0B1E02C9130E011968C91119780
:107F100090E0982F8827822B932B1296FA010C0160
:107F200087BEE89511244E5F5F4FF1E0A038BF0790
:107F300051F7F601A7BEE89507B600FCFDCF97BE46
:107F4000E89526C08437B1F42ED02DD0F82E2BD052
:107F50003CD0F601EF2C8F010F5F1F4F84911BD097
:107F6000EA94F801C1F70894C11CD11CFA94CF0C13
:107F7000D11C0EC0853739F428D08EE10CD085E9AC
:107F80000AD08FE07ACF813511F488E018D01DD067
:107F900080E101D065CF982F8091C00085FFFCCF94
:107FA0009093C60008958091C00087FFFCCF809118
:107FB000C00084FD01C0A8958091C6000895E0E648
:107FC000F0E098E1908380830895EDDF803219F02E
:107FD00088E0F5DFFFCF84E1DECF1F93182FE3DFCA
:107FE0001150E9F7F2DF1F91089580E0E8DFEE27F6
:047FF000FF270994CA
:027FFE00040479
:00000001FF
